{
  "_format": "hh-sol-artifact-1",
  "contractName": "Voting",
  "sourceName": "contracts/Voting.sol",
  "abi": [
    {
      "inputs": [
        {
          "internalType": "int256[]",
          "name": "_candidateIds",
          "type": "int256[]"
        }
      ],
      "stateMutability": "nonpayable",
      "type": "constructor"
    },
    {
      "inputs": [
        {
          "internalType": "int256",
          "name": "_id",
          "type": "int256"
        }
      ],
      "name": "addCandidate",
      "outputs": [],
      "stateMutability": "nonpayable",
      "type": "function"
    },
    {
      "inputs": [
        {
          "internalType": "uint256",
          "name": "",
          "type": "uint256"
        }
      ],
      "name": "candidates",
      "outputs": [
        {
          "internalType": "int256",
          "name": "id",
          "type": "int256"
        },
        {
          "internalType": "uint256",
          "name": "voteCount",
          "type": "uint256"
        }
      ],
      "stateMutability": "view",
      "type": "function"
    },
    {
      "inputs": [],
      "name": "getAllVotesofCandidates",
      "outputs": [
        {
          "components": [
            {
              "internalType": "int256",
              "name": "id",
              "type": "int256"
            },
            {
              "internalType": "uint256",
              "name": "voteCount",
              "type": "uint256"
            }
          ],
          "internalType": "struct Voting.Candidate[]",
          "name": "",
          "type": "tuple[]"
        }
      ],
      "stateMutability": "view",
      "type": "function"
    },
    {
      "inputs": [
        {
          "internalType": "uint256",
          "name": "_candidateIndex",
          "type": "uint256"
        }
      ],
      "name": "vote",
      "outputs": [],
      "stateMutability": "nonpayable",
      "type": "function"
    }
  ],
  "bytecode": "0x60806040523480156200001157600080fd5b50604051620009a4380380620009a48339818101604052810190620000379190620002d3565b60005b8151811015620000c6576000604051806040016040528084848151811062000067576200006662000324565b5b60200260200101518152602001600081525090806001815401808255809150506001900390600052602060002090600202016000909190919091506000820151816000015560208201518160010155505080806001019150506200003a565b5033600160006101000a81548173ffffffffffffffffffffffffffffffffffffffff021916908373ffffffffffffffffffffffffffffffffffffffff1602179055505062000353565b6000604051905090565b600080fd5b600080fd5b600080fd5b6000601f19601f8301169050919050565b7f4e487b7100000000000000000000000000000000000000000000000000000000600052604160045260246000fd5b620001738262000128565b810181811067ffffffffffffffff8211171562000195576200019462000139565b5b80604052505050565b6000620001aa6200010f565b9050620001b8828262000168565b919050565b600067ffffffffffffffff821115620001db57620001da62000139565b5b602082029050602081019050919050565b600080fd5b6000819050919050565b6200020681620001f1565b81146200021257600080fd5b50565b6000815190506200022681620001fb565b92915050565b6000620002436200023d84620001bd565b6200019e565b90508083825260208201905060208402830185811115620002695762000268620001ec565b5b835b8181101562000296578062000281888262000215565b8452602084019350506020810190506200026b565b5050509392505050565b600082601f830112620002b857620002b762000123565b5b8151620002ca8482602086016200022c565b91505092915050565b600060208284031215620002ec57620002eb62000119565b5b600082015167ffffffffffffffff8111156200030d576200030c6200011e565b5b6200031b84828501620002a0565b91505092915050565b7f4e487b7100000000000000000000000000000000000000000000000000000000600052603260045260246000fd5b61064180620003636000396000f3fe608060405234801561001057600080fd5b506004361061004c5760003560e01c80630121b93f146100515780633477ee2e1461006d5780635554f8ba1461009e578063dacd1d21146100ba575b600080fd5b61006b600480360381019061006691906102f3565b6100d8565b005b610087600480360381019061008291906102f3565b61015d565b604051610095929190610348565b60405180910390f35b6100b860048036038101906100b3919061039d565b610191565b005b6100c2610245565b6040516100cf91906104c6565b60405180910390f35b600080549050811061011f576040517f08c379a000000000000000000000000000000000000000000000000000000000815260040161011690610545565b60405180910390fd5b6000818154811061013357610132610565565b5b90600052602060002090600202016001016000815480929190610155906105c3565b919050555050565b6000818154811061016d57600080fd5b90600052602060002090600202016000915090508060000154908060010154905082565b600160009054906101000a900473ffffffffffffffffffffffffffffffffffffffff1673ffffffffffffffffffffffffffffffffffffffff163373ffffffffffffffffffffffffffffffffffffffff16146101eb57600080fd5b60006040518060400160405280838152602001600081525090806001815401808255809150506001900390600052602060002090600202016000909190919091506000820151816000015560208201518160010155505050565b60606000805480602002602001604051908101604052809291908181526020016000905b828210156102af57838290600052602060002090600202016040518060400160405290816000820154815260200160018201548152505081526020019060010190610269565b50505050905090565b600080fd5b6000819050919050565b6102d0816102bd565b81146102db57600080fd5b50565b6000813590506102ed816102c7565b92915050565b600060208284031215610309576103086102b8565b5b6000610317848285016102de565b91505092915050565b6000819050919050565b61033381610320565b82525050565b610342816102bd565b82525050565b600060408201905061035d600083018561032a565b61036a6020830184610339565b9392505050565b61037a81610320565b811461038557600080fd5b50565b60008135905061039781610371565b92915050565b6000602082840312156103b3576103b26102b8565b5b60006103c184828501610388565b91505092915050565b600081519050919050565b600082825260208201905092915050565b6000819050602082019050919050565b6103ff81610320565b82525050565b61040e816102bd565b82525050565b60408201600082015161042a60008501826103f6565b50602082015161043d6020850182610405565b50505050565b600061044f8383610414565b60408301905092915050565b6000602082019050919050565b6000610473826103ca565b61047d81856103d5565b9350610488836103e6565b8060005b838110156104b95781516104a08882610443565b97506104ab8361045b565b92505060018101905061048c565b5085935050505092915050565b600060208201905081810360008301526104e08184610468565b905092915050565b600082825260208201905092915050565b7f496e76616c69642043616e64696461746520496e646578000000000000000000600082015250565b600061052f6017836104e8565b915061053a826104f9565b602082019050919050565b6000602082019050818103600083015261055e81610522565b9050919050565b7f4e487b7100000000000000000000000000000000000000000000000000000000600052603260045260246000fd5b7f4e487b7100000000000000000000000000000000000000000000000000000000600052601160045260246000fd5b60006105ce826102bd565b91507fffffffffffffffffffffffffffffffffffffffffffffffffffffffffffffffff8203610600576105ff610594565b5b60018201905091905056fea2646970667358221220792833fd8e4ef0736a42e05795bde7054f5e2436b043797085951b28afac76c564736f6c63430008180033",
  "linkReferences": {},
  "deployedLinkReferences": {}
}